:100000000C9446000C945D000C945D000C945D0013
:100010000C945D000C945D000C945D000C945D00EC
:100020000C945D000C945D000C945D000C945D00DC
:100030000C945D000C945D000C945D000C945D00CC
:100040000C945D000C945D000C945D000C945D00BC
:100050000C945D000C945D000C945D000C945D00AC
:100060000C945D000C945D000C945D000C945D009C
:100070000C945D000C945D000C945D000C945D008C
:100080000C945D000C945D000C945D0011241FBE67
:10009000CFEFD0E4DEBFCDBF11E0A0E0B1E0EAE5F4
:1000A000F3E000E00BBF02C007900D92AE30B10745
:1000B000D9F70E9499000C94AB010C940000CF93E7
:1000C000DF9300D01F92CDB7DEB789837B836A832D
:1000D00089818A3031F48A819B81BC018DE00E9444
:1000E0005F0080EC90E0FC018081882F90E08072BE
:1000F0009927892BB1F386EC90E02981FC012083BC
:1001000080E090E00F900F900F90DF91CF910895D5
:10011000CF93DF93CDB7DEB78AE790E02AE730E0F0
:10012000F9012081206EFC0120830000DF91CF9136
:100130000895CF93DF9300D000D0CDB7DEB781E232
:1001400090E0FC01108282E290E02FEFFC0120831E
:1001500084E290E02FEFFC01208385E290E0FC0137
:1001600010820E9488001A82198288E790E0FC01C0
:10017000808191819C838B832B813C8189819A81B1
:100180008217930724F48B819C819A8389838981C8
:100190009A8199230CF4079695958795959587955F
:1001A000959587959C018B819C818217930734F4E8
:1001B00085E290E02FEFFC012083D7CF89819A81DF
:1001C00099230CF407969595879595958795959520
:1001D00087959C01220F331F8B819C818217930787
:1001E00034F485E290E02FE7FC012083BECF8981C3
:1001F0009A8199230CF407969595879595958795FF
:10020000959587959C01C901880F991F280F391F63
:100210008B819C818217930734F485E290E02FE371
:10022000FC012083A2CF89819A8199230CF407963F
:100230009595879595958795959587959C01220F1E
:10024000331F220F331F8B819C818217930734F455
:1002500085E290E02FE1FC01208387CF89819A819C
:1002600099230CF40796959587959595879595957F
:1002700087959C01C901880F991F880F991F280F26
:10028000391F8B819C818217930734F485E290E0BB
:100290002FE0FC01208369CF89819A8199230CF496
:1002A00007969595879595958795959587959C0142
:1002B000C901880F991F820F931F880F991F9C01F6
:1002C0008B819C818217930734F485E290E027E0CC
:1002D000FC0120834ACF89819A8199230CF40796E7
:1002E0009595879595958795959587959C01C901D5
:1002F000880F991F880F991F880F991FAC01421B07
:10030000530B9A018B819C818217930734F485E209
:1003100090E023E0FC01208328CF89819A819923F2
:100320000CF407969595879595958795959587955E
:100330009C01220F331F220F331F220F331F8B818B
:100340009C81821793070CF010CF85E290E021E0AA
:0A035000FC0120830ACFF894FFCFD0
:0E035A0000000002000000005F000000000034
:00000001FF
